:020000000B28CB
:10000800DE00030E8312A0000A08A1003F28831611
:10001800FF239000831210288312A401A501A601D2
:1000280083011628073099009F0183169F019901C3
:100038003E30850083128501C730831681008B16F8
:100048008B178312851C25280D30A300FB30A200D6
:10005800A20B2C28A30B2C2831288312851C3C28A2
:1000680026183928831205143B2883120510A6097F
:10007800851C25283C280B1D56280130A407031889
:10008800A50A0030A507003025020A30031924020A
:10009800031C552826080319552801308506A40194
:1000A800A5010B1121088A00200E8300DE0E5E0ECA
:0200B80009003D
:02400E009431EB
:00000001FF
