:020000040000FA
:02000000FD2BD6
:1006F6008312051C802B051008000514080007301E
:100706008312990083169F01FE30850083128501AE
:1007160008008223831205108510A62BB9238312A5
:1007260020032104031DA82B0130A12B7B23B92311
:10073600831220032104031DA82B0230A8000030D9
:10074600A900A82B0510A801A9012908003A031938
:10075600AD2BA82B2808003A0319912B013A03194F
:10076600992B033A0319A52BA82B002803108312F3
:1007760085180314003003180130A200A3012208D3
:10078600A4002308A500A601A7012708803ADF00D8
:1007960083305F02031DD12BE83026020318F92BA4
:1007A600C7308312A200D72BA20BD62BDA2BDB2B5A
:1007B60083122403250403198518E62B0130A000B3
:1007C6000030A10008000310851803140030031838
:1007D6000130A200A3012208A4002308A5000130CD
:1007E600A6070318A70A0030A707C82B8312A00183
:0807F600A101080083018C2B16
:02400E009631E9
:00000001FF
