:020000040000FA
:02000000FD2BD6
:10077C0007308312990083169F01FE308500831287
:10078C0085010800BE23831205108312851CEC2BF7
:10079C0005140630A2001330A100AD30A000A00B50
:1007AC00D52BA10BD52BA20BD52BDC2B8312051033
:1007BC000630A2001330A100AD30A000A00BE42B3A
:1007CC00A10BE42BA20BE42BEB2BCB2B8518C92B09
:1007DC0005100630A2001330A100AD30A000A00B14
:1007EC00F52BA10BF52BA20BF52BFC2BC92B8301A5
:0207FC00C82B08
:02400E009631E9
:00000001FF
