:020000040000FA
:02000000FD2BD6
:1006F80007308312990083169F01FE30850083120C
:1007080085019C2BAF23831220032104031D9E2BFC
:100718000130972B01308506AF2383122003210473
:10072800031D9E2B0230A8000030A9009E2B051047
:10073800A801A9012908003A0319A32B9E2B280810
:10074800003A0319862B013A03198E2B033A031931
:100758009B2B9E2B0028031083128518031400304E
:1007680003180130A200A3012208A4002308A50051
:10077800A601A7012708803ADF0083305F02031D26
:10078800C72BE83026020318F92BC7308312A200C2
:10079800CD2BA20BCC2BD02BD12B83122508803A42
:1007A800DF0080305F02031DDB2B01302402031CB5
:1007B800E62B83128518E52B0130A0000030A1003C
:1007C8000800031083128518031400300318013041
:1007D800A200A3012208A4002308A5000130A6074F
:1007E8000318A70A0030A707BE2B8312A001A10196
:0607F800080083017C2BC8
:02400E009431EB
:00000001FF
