:020000000B28CB
:10000800DE00030E8312A0000A08A1003B28831615
:10001800FF239000831210288301122807309900CB
:1000280083169F013E308500831285013130900090
:100038000B178B17851C1E280D30A300FB30A20060
:10004800A20B2428A30B242829288312851C3728CF
:1000580083160C18322883120514342883120510CD
:10006800013083168C068312851C1E2837280C1C29
:100078004028013085060C1021088A00200E8300D4
:06008800DE0E5E0E090011
:02400E009431EB
:00000001FF
