:020000000B28CB
:10000800DE00030E8312A0000A08A100412883160F
:10001800FF239000831210288312A401A501A601D2
:1000280083011628073099009F0183169F019901C3
:100038003E30850083128501C730831681008B16F8
:100048008B178312851C25280D30A300FB30A200D6
:10005800A20B2C28A30B2C2831288312851C3E28A0
:1000680026183928831205143B2883120510A6097F
:10007800A401A501851C25283E280B1D5828013000
:10008800A4070318A50A0030A507003025020A3086
:1000980003192402031C572826080319572801307E
:1000A8008506A401A5010B1121088A00200E8300F2
:0600B800DE0E5E0E0900E1
:02400E009431EB
:00000001FF
