:020000040000FA
:02000000FD2BD6
:1006CA008312051C6A2B0510080005140800073060
:1006DA008312990083169F01FE30850083128501DB
:1006EA0008006C23831205108510902BA323831214
:1006FA0020032104031D922B01308B2B6523A32396
:10070A00831220032104031D922B0230AA00003019
:10071A00AB00922B0510AA01AB012B08003A031972
:10072A00972B922B2A08003A03197B2B013A0319BB
:10073A00832B033A03198F2B922B00280310831261
:10074A0085180314003003180130A200A3012208FF
:10075A00A4002308A500A601A701A801A90127084A
:10076A00803ADF0083305F02031DBD2BE83026028A
:10077A000318F92BC7308312A200C32BA20BC22B7A
:10078A00C62BC72B031083128518031400300318D5
:10079A000130A200A30125082306031DD62B240835
:1007AA0022060319E62B28082904031DE12B013030
:1007BA00A8000030A900E62B0130A0000030A100FB
:1007CA000800031085180314003003180130A20032
:1007DA00A3012208A4002308A5000130A6070318D4
:1007EA00A70A0030A707B42B8312A001A1010800B1
:0407FA008301762BD6
:02400E009631E9
:00000001FF
