:0A0000008316FF2390008312FD2BEE
:100742000D30A300FB30A200A20BA52BA30BA52BFF
:10075200AA2B83129F149F18AC2B1E08A200A30180
:100762002208A0002308A1000800073099001830D1
:1007720083169F0038308500831285010D309F005B
:10078200DD2B0D30A500FB30A400A40BC62BA50B5E
:10079200C62BCB2B8312851EDD2B8514A1232108AA
:1007A200A7002008A6000030270280300319260285
:1007B200031CCF2B85108512851AC22B851DDD2BBC
:1007C2000D30A500FB30A400A40BE52BA50BE52BF7
:1007D200EA2B8312851DDD2B0514A1232108A70016
:1007E2002008A60000302702213003192602031830
:0C07F200EE2B05108511DD2B8301B62BCA
:02400E009431EB
:00000001FF
