:0A0000008316FF2390008312FD2BEE
:100708000D30A300FB30A200A20B882BA30B882B73
:100718008D2B83129F149F188F2B1E08A200A301F4
:100728002208A0002308A10008000730990018300B
:1007380083169F0038308500831285010D309F0095
:10074800C02B0D30A500FB30A400A40BA92BA50BD2
:10075800A92BAE2B8312851EC02B85148423210858
:10076800A8002008A70000302802803003192702BB
:10077800031CB22B85108512851AA52B851DC02B4D
:100788000D30A500FB30A400A40BC82BA50BC82B6B
:10079800CD2B8312851DC02B84232108A800200897
:1007A800A70000302802213003192702031CEA2B76
:1007B800051484232108A8002008A7000030280277
:1007C800213003192702031CFA2BDD2B05150B30EA
:1007D800A6002630A5005D30A400A40BF12BA50BC4
:1007E800F12BA60BF12BF82B83120511051085119F
:0607F800C02B8301992BC8
:02400E009431EB
:00000001FF
