:0A0000008316FF2390008312FD2BEE
:100732001A30A300F830A200A20B9D2BA30B9D2B15
:10074200000083129F14000083129F18A52B1E081D
:10075200A10083161E088312A0000800073099002A
:10076200183083169F0038308500831285010D30C2
:100772009F00DA2B0D30A500FB30A400A40BBF2B89
:10078200A50BBF2BC42B8312851EC92B02308506F5
:10079200851EDA2B99232108A7002008A600023023
:1007A20027020030031926020318C92B851085126F
:1007B200C92B851ABB2B851DDA2B0D30A500FB300A
:1007C200A400A40BE22BA50BE22BE72B8312851DC1
:1007D200EC2B01308506851DDA2B99232108A70011
:1007E2002008A60001302702F4300319260203185C
:0C07F200EC2B05108511EC2B8301AF2BC4
:02400E009431EB
:00000001FF
